{
  "config" : {
    "chainId" : 235,
    "homesteadBlock" : 0,
    "eip150Block" : 0,
    "eip155Block" : 0,
    "eip158Block" : 0,
    "byzantiumBlock" : 0,
    "constantinopleBlock" : 0,
    "constantinopleFixBlock" : 0,
    "istanbulBlock" : 0,
    "muirGlacierBlock" : 0,
    "berlinBlock" : 0,
    "londonBlock" : 0,
    "zeroBaseFee" : true,
    "qbft" : {
      "blockperiodseconds" : 15,
      "epochlength" : 30000,
      "requesttimeoutseconds" : 4
    }
  },
  "nonce" : "0x0",
  "timestamp" : "0x652399D3",
  "gasLimit" : "0x4C845880",
  "difficulty" : "0x1",
  "mixHash" : "0x0000000000000000000000000000000000000000000000000000000000000000",
  "coinbase" : "0x0000000000000000000000000000000000000000",
  "alloc" : {
    "0x32D5a21376C0dF3F98200a00380b06adeE341B91" : {
      "balance" : "0x3F870857A3E0E3800000"
    },
    "0x6f7090364d4ae2c1819693d6382b74c7d004b4b8" : {
      "balance" : "0x3F870857A3E0E3800000"
    },
    "0x7c55259cc19af2ab5f417680884b5b642e20cdc4" : {
      "balance" : "0x3F870857A3E0E3800000"
    },
    "0x9784e7348e2A4EbDC059e0BCC575D874d96ce88c" : {
      "balance" : "0x3F870857A3E0E3800000"
    },
    "0xcA9594b6006C8396c4c75393Fa847FaC558dbc7A" : {
      "balance" : "0x3F870857A3E0E3800000"
    }
  },
  "extraData" : "0xf865a00000000000000000000000000000000000000000000000000000000000000000f83f9432d5a21376c0df3f98200a00380b06adee341b91946f7090364d4ae2c1819693d6382b74c7d004b4b8947c55259cc19af2ab5f417680884b5b642e20cdc4c080c0"
}